{
  "transactions": [
    {
      "hash": "0xd29f2ef107e60ac13078c43fd7500e671fb4053fd6e8541410884cb53bd7d528",
      "transactionType": "CREATE",
      "contractName": "DevOpsTools",
      "contractAddress": "0xf3fa4c1B1C454E80b459AfE10338296E1FAf9BE4",
      "function": null,
      "arguments": null,
      "transaction": {
        "type": "0x02",
        "from": "0xa15139ea1de7f9fd8e3ceac0475fda9ac7b0f45b",
        "gas": "0xebb6e",
        "data": "0x610c7861003a600b82828239805160001a60731461002d57634e487b7160e01b600052600060045260246000fd5b30600052607381538281f3fe730000000000000000000000000000000000000000301460806040526004361061006c5760003560e01c806326dceeb7146100715780632aa1c696146100ae5780633a768463146100e5578063a6066fa514610100578063d76ca83d14610108578063e374cdf11461011b575b600080fd5b81801561007d57600080fd5b5061009161008c366004610897565b61013b565b6040516001600160a01b0390911681526020015b60405180910390f35b6100d86040518060400160405280600b81526020016a0b8bd89c9bd85918d85cdd60aa1b81525081565b6040516100a59190610979565b610091737109709ecfa91a80626ff3989d68f67f5b1dd12d81565b6100d8610507565b6100d861011636600461098c565b610523565b81801561012757600080fd5b506100916101363660046109c1565b6106da565b600061014683610523565b925061015182610523565b60408051600180825281830190925291935060009190816020015b606081526020019060019003908161016c579050509050604051806040016040528060038152602001621c1dd960ea1b815250816000815181106101b2576101b2610a06565b6020908102919091010152604051638916046760e01b8152600090737109709ecfa91a80626ff3989d68f67f5b1dd12d906389160467906101f7908590600401610a1c565b6000604051808303816000875af1158015610216573d6000803e3d6000fd5b505050506040513d6000823e601f3d908101601f1916820160405261023e9190810190610ab5565b60408051600580825260c0820190925291925060009190816020015b606081526020019060019003908161025a579050509050604051806040016040528060048152602001630c4c2e6d60e31b815250816000815181106102a1576102a1610a06565b602002602001018190525081856040516020016102bf929190610afe565b604051602081830303815290604052816001815181106102e1576102e1610a06565b6020026020010181905250878160028151811061030057610300610a06565b602090810291909101015260405163348051d760e11b815260048101889052737109709ecfa91a80626ff3989d68f67f5b1dd12d90636900a3ae90602401600060405180830381865afa15801561035b573d6000803e3d6000fd5b505050506040513d6000823e601f3d908101601f191682016040526103839190810190610ab5565b8160038151811061039657610396610a06565b602002602001018190525081866040516020016103b4929190610b2d565b604051602081830303815290604052816004815181106103d6576103d6610a06565b6020908102919091010152604051638916046760e01b8152600090737109709ecfa91a80626ff3989d68f67f5b1dd12d9063891604679061041b908590600401610a1c565b6000604051808303816000875af115801561043a573d6000803e3d6000fd5b505050506040513d6000823e601f3d908101601f191682016040526104629190810190610ab5565b90506104916040518060400160405280600c81526020016b2932ba3ab937102230ba309d60a11b81525061072c565b61049a81610772565b60006104a582610b69565b60601c905080156104bc5794506104ff9350505050565b60405162461bcd60e51b8152602060048201526014602482015273139bc818dbdb9d1c9858dd0819195c1b1bde595960621b604482015260640160405180910390fd5b949350505050565b604051806060016040528060318152602001610c126031913981565b80516060908290600090815b835181101561057e5783818151811061054a5761054a610a06565b6020910101516001600160f81b031916600160fd1b1461056c5780925061057e565b8061057681610bbb565b91505061052f565b5082515b80156105d85783610594600183610bd4565b815181106105a4576105a4610a06565b6020910101516001600160f81b031916600160fd1b146105c6578091506105d8565b806105d081610be7565b915050610582565b508282815181106105eb576105eb610a06565b01602001516001600160f81b031916601760f91b036106125761060f600183610bfe565b91505b600061061e8383610bd4565b67ffffffffffffffff811115610636576106366107d2565b6040519080825280601f01601f191660200182016040528015610660576020820181803683370190505b50905060005b81518110156106d0578461067a8286610bfe565b8151811061068a5761068a610a06565b602001015160f81c60f81b8282815181106106a7576106a7610a06565b60200101906001600160f81b031916908160001a905350806106c881610bbb565b915050610666565b5095945050505050565b600061072383836040518060400160405280600b81526020016a0b8bd89c9bd85918d85cdd60aa1b815250604051806060016040528060318152602001610c126031913961013b565b90505b92915050565b61076f816040516024016107409190610979565b60408051601f198184030181529190526020810180516001600160e01b031663104c13eb60e21b1790526107b1565b50565b61076f816040516024016107869190610979565b60408051601f198184030181529190526020810180516001600160e01b03166305f3bfab60e11b1790525b80516a636f6e736f6c652e6c6f67602083016000808483855afa5050505050565b634e487b7160e01b600052604160045260246000fd5b604051601f8201601f1916810167ffffffffffffffff81118282101715610811576108116107d2565b604052919050565b600067ffffffffffffffff821115610833576108336107d2565b50601f01601f191660200190565b600082601f83011261085257600080fd5b813561086561086082610819565b6107e8565b81815284602083860101111561087a57600080fd5b816020850160208301376000918101602001919091529392505050565b600080600080608085870312156108ad57600080fd5b843567ffffffffffffffff808211156108c557600080fd5b6108d188838901610841565b95506020870135945060408701359150808211156108ee57600080fd5b6108fa88838901610841565b9350606087013591508082111561091057600080fd5b5061091d87828801610841565b91505092959194509250565b60005b8381101561094457818101518382015260200161092c565b50506000910152565b60008151808452610965816020860160208601610929565b601f01601f19169290920160200192915050565b602081526000610723602083018461094d565b60006020828403121561099e57600080fd5b813567ffffffffffffffff8111156109b557600080fd5b6104ff84828501610841565b600080604083850312156109d457600080fd5b823567ffffffffffffffff8111156109eb57600080fd5b6109f785828601610841565b95602094909401359450505050565b634e487b7160e01b600052603260045260246000fd5b6000602080830181845280855180835260408601915060408160051b870101925083870160005b82811015610a7157603f19888603018452610a5f85835161094d565b94509285019290850190600101610a43565b5092979650505050505050565b6000610a8c61086084610819565b9050828152838383011115610aa057600080fd5b610aae836020830184610929565b9392505050565b600060208284031215610ac757600080fd5b815167ffffffffffffffff811115610ade57600080fd5b8201601f81018413610aef57600080fd5b6104ff84825160208401610a7e565b60008351610b10818460208801610929565b835190830190610b24818360208801610929565b01949350505050565b60008351610b3f818460208801610929565b602f60f81b9083019081528351610b5d816001840160208801610929565b01600101949350505050565b805160208201516bffffffffffffffffffffffff198082169291906014831015610b9d5780818460140360031b1b83161693505b505050919050565b634e487b7160e01b600052601160045260246000fd5b600060018201610bcd57610bcd610ba5565b5060010190565b8181038181111561072657610726610ba5565b600081610bf657610bf6610ba5565b506000190190565b8082018082111561072657610726610ba556fe2e2f6c69622f666f756e6472792d6465766f70732f7372632f6765745f726563656e745f6465706c6f796d656e742e7368a2646970667358221220e27fed9e022816502598be5c5055142d7c88c7530ec064eb42f90c0b13720a8964736f6c63430008150033",
        "nonce": "0x1e",
        "accessList": []
      },
      "additionalContracts": [],
      "isFixedGasLimit": false
    },
    {
      "hash": "0x98249258e3a84863f476226af8b74417cce2186617258877ee91e3015c4aa6ec",
      "transactionType": "CALL",
      "contractName": "VRFCoordinatorV2",
      "contractAddress": "0x8103B0A8A00be2DDC778e6e7eaa21791Cd364625",
      "function": "createSubscription():(uint64)",
      "arguments": [],
      "transaction": {
        "type": "0x02",
        "from": "0xa15139ea1de7f9fd8e3ceac0475fda9ac7b0f45b",
        "to": "0x8103b0a8a00be2ddc778e6e7eaa21791cd364625",
        "gas": "0x1558c",
        "value": "0x0",
        "data": "0xa21a23e4",
        "nonce": "0x1f",
        "accessList": []
      },
      "additionalContracts": [],
      "isFixedGasLimit": false
    },
    {
      "hash": "0x3f4714a905a5d547515568c066314ab76d1fa408dee69db8f0fcd65d861b67d6",
      "transactionType": "CALL",
      "contractName": "LinkToken",
      "contractAddress": "0x779877A7B0D9E8603169DdbD7836e478b4624789",
      "function": "transferAndCall(address,uint256,bytes):(bool)",
      "arguments": [
        "0x8103B0A8A00be2DDC778e6e7eaa21791Cd364625",
        "3000000000000000000",
        "0x00000000000000000000000000000000000000000000000000000000000013be"
      ],
      "transaction": {
        "type": "0x02",
        "from": "0xa15139ea1de7f9fd8e3ceac0475fda9ac7b0f45b",
        "to": "0x779877a7b0d9e8603169ddbd7836e478b4624789",
        "gas": "0x1b43f",
        "value": "0x0",
        "data": "0x4000aea00000000000000000000000008103b0a8a00be2ddc778e6e7eaa21791cd36462500000000000000000000000000000000000000000000000029a2241af62c00000000000000000000000000000000000000000000000000000000000000000060000000000000000000000000000000000000000000000000000000000000002000000000000000000000000000000000000000000000000000000000000013be",
        "nonce": "0x20",
        "accessList": []
      },
      "additionalContracts": [],
      "isFixedGasLimit": false
    },
    {
      "hash": "0xb8e9bb70c2fabc5c710bebe264faed82fdbe1049912f09ebcbf59881386c196e",
      "transactionType": "CREATE",
      "contractName": "Raffle",
      "contractAddress": "0xA2eBB374C34636A7aF5028725AFD2978D24D78AE",
      "function": null,
      "arguments": [
        "5054",
        "0x474e34a077df58807dbe9c96d3c009b23b3c6d0cce433e59bbf5b34f823bc56c",
        "30",
        "10000000000000000",
        "500000",
        "0x8103B0A8A00be2DDC778e6e7eaa21791Cd364625"
      ],
      "transaction": {
        "type": "0x02",
        "from": "0xa15139ea1de7f9fd8e3ceac0475fda9ac7b0f45b",
        "gas": "0xe816c",
        "value": "0x0",
        "data": "0x61016060405234801561001157600080fd5b50604051610d3d380380610d3d83398101604081905261003091610081565b6001600160a01b0316608081905260a05260e093909352610120919091526001600160401b039290921660c052610140919091526003805460ff191690554260005563ffffffff166101005261010c565b60008060008060008060c0878903121561009a57600080fd5b86516001600160401b03811681146100b157600080fd5b80965050602087015194506040870151935060608701519250608087015163ffffffff811681146100e157600080fd5b60a08801519092506001600160a01b03811681146100fe57600080fd5b809150509295509295509295565b60805160a05160c05160e051610100516101205161014051610bc361017a6000396000818160d6015261030701526000818161020a01526105d5015260006104d001526000610472015260006104980152600061050c01526000818161028301526102c50152610bc36000f3fe6080604052600436106100c25760003560e01c806353a2c19a1161007f57806391ad27b41161005957806391ad27b4146101fb578063c1c244e81461022e578063e55ae4e814610243578063fd6673f51461026357600080fd5b806353a2c19a146101a55780635f1b0fd8146101b95780636e04ff0d146101cd57600080fd5b806309bc33a7146100c7578063115cbaf5146101095780631fe543e3146101295780632cfcc5391461014b5780634585e33b14610153578063473f1ddc14610173575b600080fd5b3480156100d357600080fd5b507f00000000000000000000000000000000000000000000000000000000000000005b6040519081526020015b60405180910390f35b34801561011557600080fd5b5060035460ff16604051610100919061087c565b34801561013557600080fd5b506101496101443660046108eb565b610278565b005b610149610305565b34801561015f57600080fd5b5061014961016e36600461099d565b6103eb565b34801561017f57600080fd5b506001546001600160a01b03165b6040516001600160a01b039091168152602001610100565b3480156101b157600080fd5b5060016100f6565b3480156101c557600080fd5b5060036100f6565b3480156101d957600080fd5b506101ed6101e8366004610a0f565b6105ad565b604051610100929190610aa4565b34801561020757600080fd5b507f00000000000000000000000000000000000000000000000000000000000000006100f6565b34801561023a57600080fd5b506000546100f6565b34801561024f57600080fd5b5061018d61025e366004610afc565b610652565b34801561026f57600080fd5b506002546100f6565b336001600160a01b037f000000000000000000000000000000000000000000000000000000000000000016146102f75760405163073e64fd60e21b81523360048201526001600160a01b037f00000000000000000000000000000000000000000000000000000000000000001660248201526044015b60405180910390fd5b6103018282610682565b5050565b7f00000000000000000000000000000000000000000000000000000000000000003410156103465760405163181c600560e11b815260040160405180910390fd5b600060035460ff16600181111561035f5761035f610866565b1461037d5760405163349289c560e21b815260040160405180910390fd5b6002805460018101825560009182527f405787fa12a823e0f2b7631cc41b3ba8828b3321ca811111fa75cd3aa3bb5ace0180546001600160a01b0319163390811790915560405190917f0805e1d667bddb8a95f0f09880cf94f403fb596ce79928d9f29b74203ba284d491a2565b6000610405604051806020016040528060008152506105ad565b509050806104545760025460035447919060ff16600181111561042a5761042a610866565b604051632c2193d560e11b81526004810193909352602483019190915260448201526064016102ee565b6003805460ff1916600190811782556040516305d3b1d360e41b81527f000000000000000000000000000000000000000000000000000000000000000060048201527f000000000000000000000000000000000000000000000000000000000000000067ffffffffffffffff16602482015260448101929092527f000000000000000000000000000000000000000000000000000000000000000063ffffffff16606483015260848201526000906001600160a01b037f00000000000000000000000000000000000000000000000000000000000000001690635d3b1d309060a4016020604051808303816000875af1158015610555573d6000803e3d6000fd5b505050506040513d601f19601f820116820180604052508101906105799190610b15565b60405190915081907fcd6e45c8998311cab7e9d4385596cac867e20a0587194b954fa3a731c93ce78b90600090a250505050565b600354600090606090829060ff1660018111156105cc576105cc610866565b600014905060007f0000000000000000000000000000000000000000000000000000000000000000600054426106029190610b2e565b6002549110915015154715158280156106185750835b80156106215750805b801561062a5750815b60408051808201909152600381526203078360ec1b6020820152909890975095505050505050565b60006002828154811061066757610667610b55565b6000918252602090912001546001600160a01b031692915050565b60006002805490508260008151811061069d5761069d610b55565b60200260200101516106af9190610b6b565b90506000600282815481106106c6576106c6610b55565b6000918252602082200154600180546001600160a01b0319166001600160a01b039092169182179055915060405190808252806020026020018201604052801561071a578160200160208202803683370190505b50805161072f916002916020909101906107ec565b506003805460ff191690554260009081556040516001600160a01b038316917f5b690ec4a06fe979403046eaeea5b3ce38524683c3001f662c8b5a829632f7df91a26000816001600160a01b03164760405160006040518083038185875af1925050503d80600081146107be576040519150601f19603f3d011682016040523d82523d6000602084013e6107c3565b606091505b50509050806107e55760405163a1d04b3960e01b815260040160405180910390fd5b5050505050565b828054828255906000526020600020908101928215610841579160200282015b8281111561084157825182546001600160a01b0319166001600160a01b0390911617825560209092019160019091019061080c565b5061084d929150610851565b5090565b5b8082111561084d5760008155600101610852565b634e487b7160e01b600052602160045260246000fd5b602081016002831061089e57634e487b7160e01b600052602160045260246000fd5b91905290565b634e487b7160e01b600052604160045260246000fd5b604051601f8201601f1916810167ffffffffffffffff811182821017156108e3576108e36108a4565b604052919050565b600080604083850312156108fe57600080fd5b8235915060208084013567ffffffffffffffff8082111561091e57600080fd5b818601915086601f83011261093257600080fd5b813581811115610944576109446108a4565b8060051b91506109558483016108ba565b818152918301840191848101908984111561096f57600080fd5b938501935b8385101561098d57843582529385019390850190610974565b8096505050505050509250929050565b600080602083850312156109b057600080fd5b823567ffffffffffffffff808211156109c857600080fd5b818501915085601f8301126109dc57600080fd5b8135818111156109eb57600080fd5b8660208285010111156109fd57600080fd5b60209290920196919550909350505050565b60006020808385031215610a2257600080fd5b823567ffffffffffffffff80821115610a3a57600080fd5b818501915085601f830112610a4e57600080fd5b813581811115610a6057610a606108a4565b610a72601f8201601f191685016108ba565b91508082528684828501011115610a8857600080fd5b8084840185840137600090820190930192909252509392505050565b821515815260006020604081840152835180604085015260005b81811015610ada57858101830151858201606001528201610abe565b506000606082860101526060601f19601f830116850101925050509392505050565b600060208284031215610b0e57600080fd5b5035919050565b600060208284031215610b2757600080fd5b5051919050565b81810381811115610b4f57634e487b7160e01b600052601160045260246000fd5b92915050565b634e487b7160e01b600052603260045260246000fd5b600082610b8857634e487b7160e01b600052601260045260246000fd5b50069056fea264697066735822122044e6b4559bfcc68991299ccf5fe98e7848a3a88b11db2feb10d6aeebac10355464736f6c6343000815003300000000000000000000000000000000000000000000000000000000000013be474e34a077df58807dbe9c96d3c009b23b3c6d0cce433e59bbf5b34f823bc56c000000000000000000000000000000000000000000000000000000000000001e000000000000000000000000000000000000000000000000002386f26fc10000000000000000000000000000000000000000000000000000000000000007a1200000000000000000000000008103b0a8a00be2ddc778e6e7eaa21791cd364625",
        "nonce": "0x21",
        "accessList": []
      },
      "additionalContracts": [],
      "isFixedGasLimit": false
    },
    {
      "hash": "0xa647a9f051dc7d54fc5b4d76fd48413cfb32ddfb95993b243396ce2b98125fc5",
      "transactionType": "CALL",
      "contractName": "VRFCoordinatorV2",
      "contractAddress": "0x8103B0A8A00be2DDC778e6e7eaa21791Cd364625",
      "function": "addConsumer(uint64,address)",
      "arguments": [
        "5054",
        "0xA2eBB374C34636A7aF5028725AFD2978D24D78AE"
      ],
      "transaction": {
        "type": "0x02",
        "from": "0xa15139ea1de7f9fd8e3ceac0475fda9ac7b0f45b",
        "to": "0x8103b0a8a00be2ddc778e6e7eaa21791cd364625",
        "gas": "0x21eb0",
        "value": "0x0",
        "data": "0x7341c10c00000000000000000000000000000000000000000000000000000000000013be000000000000000000000000a2ebb374c34636a7af5028725afd2978d24d78ae",
        "nonce": "0x22",
        "accessList": []
      },
      "additionalContracts": [],
      "isFixedGasLimit": false
    }
  ],
  "receipts": [
    {
      "transactionHash": "0xd29f2ef107e60ac13078c43fd7500e671fb4053fd6e8541410884cb53bd7d528",
      "transactionIndex": "0x1",
      "blockHash": "0x6682be5caf0b7746c6697ac8620fc3b9df19c8cde78e098bc508ec8adf8b29ad",
      "blockNumber": "0x40a6fb",
      "from": "0xA15139eA1dE7F9fd8E3cEAc0475FdA9Ac7b0f45b",
      "to": null,
      "cumulativeGasUsed": "0xf0c95",
      "gasUsed": "0xb55e6",
      "contractAddress": "0xf3fa4c1B1C454E80b459AfE10338296E1FAf9BE4",
      "logs": [],
      "status": "0x1",
      "logsBloom": "0x00000000000000000000000000000000000000000000000000000000000000000000000000000000000000000000000000000000000000000000000000000000000000000000000000000000000000000000000000000000000000000000000000000000000000000000000000000000000000000000000000000000000000000000000000000000000000000000000000000000000000000000000000000000000000000000000000000000000000000000000000000000000000000000000000000000000000000000000000000000000000000000000000000000000000000000000000000000000000000000000000000000000000000000000000000000",
      "type": "0x2",
      "effectiveGasPrice": "0xb2d38fd8"
    },
    {
      "transactionHash": "0x98249258e3a84863f476226af8b74417cce2186617258877ee91e3015c4aa6ec",
      "transactionIndex": "0x2",
      "blockHash": "0x6682be5caf0b7746c6697ac8620fc3b9df19c8cde78e098bc508ec8adf8b29ad",
      "blockNumber": "0x40a6fb",
      "from": "0xA15139eA1dE7F9fd8E3cEAc0475FdA9Ac7b0f45b",
      "to": "0x8103B0A8A00be2DDC778e6e7eaa21791Cd364625",
      "cumulativeGasUsed": "0xff61f",
      "gasUsed": "0xe98a",
      "contractAddress": null,
      "logs": [
        {
          "address": "0x8103B0A8A00be2DDC778e6e7eaa21791Cd364625",
          "topics": [
            "0x464722b4166576d3dcbba877b999bc35cf911f4eaf434b7eba68fa113951d0bf",
            "0x00000000000000000000000000000000000000000000000000000000000013be"
          ],
          "data": "0x000000000000000000000000a15139ea1de7f9fd8e3ceac0475fda9ac7b0f45b",
          "blockHash": "0x6682be5caf0b7746c6697ac8620fc3b9df19c8cde78e098bc508ec8adf8b29ad",
          "blockNumber": "0x40a6fb",
          "transactionHash": "0x98249258e3a84863f476226af8b74417cce2186617258877ee91e3015c4aa6ec",
          "transactionIndex": "0x2",
          "logIndex": "0x1",
          "removed": false
        }
      ],
      "status": "0x1",
      "logsBloom": "0x0000000000000000000001000020000000000000000000000000000000000000010000000000000000000800000000000000000000000000000000000000000000000000000000000000000000000000000000000000000000000000000000000000000000000000000000000000000000000000000000000000000000000000000000000c000020000000000000000000000000000000400000000000000000000000000000000000000000000000000000000000000000000000000000000000000000000000200000000000000000000000000000000000000000000000000000000000000000000000000000000000000000000000000000000000000000",
      "type": "0x2",
      "effectiveGasPrice": "0xb2d38fd8"
    },
    {
      "transactionHash": "0x3f4714a905a5d547515568c066314ab76d1fa408dee69db8f0fcd65d861b67d6",
      "transactionIndex": "0x3",
      "blockHash": "0x6682be5caf0b7746c6697ac8620fc3b9df19c8cde78e098bc508ec8adf8b29ad",
      "blockNumber": "0x40a6fb",
      "from": "0xA15139eA1dE7F9fd8E3cEAc0475FdA9Ac7b0f45b",
      "to": "0x779877A7B0D9E8603169DdbD7836e478b4624789",
      "cumulativeGasUsed": "0x112069",
      "gasUsed": "0x12a4a",
      "contractAddress": null,
      "logs": [
        {
          "address": "0x779877A7B0D9E8603169DdbD7836e478b4624789",
          "topics": [
            "0xddf252ad1be2c89b69c2b068fc378daa952ba7f163c4a11628f55a4df523b3ef",
            "0x000000000000000000000000a15139ea1de7f9fd8e3ceac0475fda9ac7b0f45b",
            "0x0000000000000000000000008103b0a8a00be2ddc778e6e7eaa21791cd364625"
          ],
          "data": "0x00000000000000000000000000000000000000000000000029a2241af62c0000",
          "blockHash": "0x6682be5caf0b7746c6697ac8620fc3b9df19c8cde78e098bc508ec8adf8b29ad",
          "blockNumber": "0x40a6fb",
          "transactionHash": "0x3f4714a905a5d547515568c066314ab76d1fa408dee69db8f0fcd65d861b67d6",
          "transactionIndex": "0x3",
          "logIndex": "0x2",
          "removed": false
        },
        {
          "address": "0x779877A7B0D9E8603169DdbD7836e478b4624789",
          "topics": [
            "0xe19260aff97b920c7df27010903aeb9c8d2be5d310a2c67824cf3f15396e4c16",
            "0x000000000000000000000000a15139ea1de7f9fd8e3ceac0475fda9ac7b0f45b",
            "0x0000000000000000000000008103b0a8a00be2ddc778e6e7eaa21791cd364625"
          ],
          "data": "0x00000000000000000000000000000000000000000000000029a2241af62c00000000000000000000000000000000000000000000000000000000000000000040000000000000000000000000000000000000000000000000000000000000002000000000000000000000000000000000000000000000000000000000000013be",
          "blockHash": "0x6682be5caf0b7746c6697ac8620fc3b9df19c8cde78e098bc508ec8adf8b29ad",
          "blockNumber": "0x40a6fb",
          "transactionHash": "0x3f4714a905a5d547515568c066314ab76d1fa408dee69db8f0fcd65d861b67d6",
          "transactionIndex": "0x3",
          "logIndex": "0x3",
          "removed": false
        },
        {
          "address": "0x8103B0A8A00be2DDC778e6e7eaa21791Cd364625",
          "topics": [
            "0xd39ec07f4e209f627a4c427971473820dc129761ba28de8906bd56f57101d4f8",
            "0x00000000000000000000000000000000000000000000000000000000000013be"
          ],
          "data": "0x000000000000000000000000000000000000000000000000000000000000000000000000000000000000000000000000000000000000000029a2241af62c0000",
          "blockHash": "0x6682be5caf0b7746c6697ac8620fc3b9df19c8cde78e098bc508ec8adf8b29ad",
          "blockNumber": "0x40a6fb",
          "transactionHash": "0x3f4714a905a5d547515568c066314ab76d1fa408dee69db8f0fcd65d861b67d6",
          "transactionIndex": "0x3",
          "logIndex": "0x4",
          "removed": false
        }
      ],
      "status": "0x1",
      "logsBloom": "0x0000001400000000000000000020000000000000000000020000000002000000000000000000800000000800000000000000000000000000000000000000000000000000000000000000000800000000000000000000000000002000000000000000000000000000000000000000000000020000400000000000001000000000000000000c000020000000000000800010000020000000400000000000000000000000000000000000000000000000200000000800000000000400000000000000000002000000000000000000000000000000000000000100000000000000000000000000000000000000000000000000000000000000000000000000000000",
      "type": "0x2",
      "effectiveGasPrice": "0xb2d38fd8"
    },
    {
      "transactionHash": "0xb8e9bb70c2fabc5c710bebe264faed82fdbe1049912f09ebcbf59881386c196e",
      "transactionIndex": "0x4",
      "blockHash": "0x6682be5caf0b7746c6697ac8620fc3b9df19c8cde78e098bc508ec8adf8b29ad",
      "blockNumber": "0x40a6fb",
      "from": "0xA15139eA1dE7F9fd8E3cEAc0475FdA9Ac7b0f45b",
      "to": null,
      "cumulativeGasUsed": "0x1c49c4",
      "gasUsed": "0xb295b",
      "contractAddress": "0xA2eBB374C34636A7aF5028725AFD2978D24D78AE",
      "logs": [],
      "status": "0x1",
      "logsBloom": "0x00000000000000000000000000000000000000000000000000000000000000000000000000000000000000000000000000000000000000000000000000000000000000000000000000000000000000000000000000000000000000000000000000000000000000000000000000000000000000000000000000000000000000000000000000000000000000000000000000000000000000000000000000000000000000000000000000000000000000000000000000000000000000000000000000000000000000000000000000000000000000000000000000000000000000000000000000000000000000000000000000000000000000000000000000000000",
      "type": "0x2",
      "effectiveGasPrice": "0xb2d38fd8"
    },
    {
      "transactionHash": "0xa647a9f051dc7d54fc5b4d76fd48413cfb32ddfb95993b243396ce2b98125fc5",
      "transactionIndex": "0x5",
      "blockHash": "0x6682be5caf0b7746c6697ac8620fc3b9df19c8cde78e098bc508ec8adf8b29ad",
      "blockNumber": "0x40a6fb",
      "from": "0xA15139eA1dE7F9fd8E3cEAc0475FdA9Ac7b0f45b",
      "to": "0x8103B0A8A00be2DDC778e6e7eaa21791Cd364625",
      "cumulativeGasUsed": "0x1dbcd6",
      "gasUsed": "0x17312",
      "contractAddress": null,
      "logs": [
        {
          "address": "0x8103B0A8A00be2DDC778e6e7eaa21791Cd364625",
          "topics": [
            "0x43dc749a04ac8fb825cbd514f7c0e13f13bc6f2ee66043b76629d51776cff8e0",
            "0x00000000000000000000000000000000000000000000000000000000000013be"
          ],
          "data": "0x000000000000000000000000a2ebb374c34636a7af5028725afd2978d24d78ae",
          "blockHash": "0x6682be5caf0b7746c6697ac8620fc3b9df19c8cde78e098bc508ec8adf8b29ad",
          "blockNumber": "0x40a6fb",
          "transactionHash": "0xa647a9f051dc7d54fc5b4d76fd48413cfb32ddfb95993b243396ce2b98125fc5",
          "transactionIndex": "0x5",
          "logIndex": "0x5",
          "removed": false
        }
      ],
      "status": "0x1",
      "logsBloom": "0x0000000000000000000000000020000000000000000000000000000000000000000000000000000000000800000000000000000000000000000000000000000000000000000000000000000000000000000000000000000000000000000000000000000000008000000000000000000000000000000000000000000000000000000000000c000020000000000000000000000000000000400000000000000000000000000000000000000080000000000000000000000000000000000000000000000000000000000000000000000000000000000000000000020000000000000000000000000000000000000000000000000000000000000000000000000000",
      "type": "0x2",
      "effectiveGasPrice": "0xb2d38fd8"
    }
  ],
  "libraries": [
    "lib/foundry-devops/src/DevOpsTools.sol:DevOpsTools:0xf3fa4c1b1c454e80b459afe10338296e1faf9be4"
  ],
  "pending": [],
  "returns": {
    "1": {
      "internal_type": "contract HelperConfig",
      "value": "0xC7f2Cf4845C6db0e1a1e91ED41Bcd0FcC1b0E141"
    },
    "0": {
      "internal_type": "contract Raffle",
      "value": "0xA2eBB374C34636A7aF5028725AFD2978D24D78AE"
    }
  },
  "timestamp": 1694027729,
  "chain": 11155111,
  "multi": false,
  "commit": "c99d2e6"
}